:020000040800F2
:1000000000040020410A0008710B0008710B000871
:10001000710B0008710B0008710B0008710B0008D0
:10002000710B0008710B0008710B0008C10B000870
:10003000710B0008710B0008710B0008910B000890
:10004000710B0008710B0008710B0008710B0008A0
:10005000710B0008710B0008710B0008710B000890
:10006000710B0008710B0008710B00085129000882
:10007000B1290008112A0008712A0008D12A0008B5
:10008000312B0008912B0008710B0008710B000840
:10009000710B0008710B0008710B0008710B000850
:1000A000710B0008710B0008710B0008710B000840
:1000B000710B0008710B0008710B0008710B000830
:1000C000710B0008710B0008710B0008710B000820
:1000D000710B0008710B0008113F0008313F000848
:1000E000710B0008710B0008710B0008710B000800
:1000F000710B0008710B0008710B0008F12B000850
:10010000710B0008710B0008710B0008710B0008DF
:10011000710B0008710B0008710B0008710B0008CF
:10012000512C0008B12C0008112D0008712D000879
:10013000D12D0008710B0008710B0008710B00082D
:10014000710B0008710B0008710B0008710B00089F
:10015000312E0008912E0008F12E0008710B0008C6
:10016000710B0008710B0008710B0008710B00087F
:10017000710B0008710B0008710B0008710B00086F
:08018000710B0008710B00086F
:1001900081F0004102E000BF83F0004330B54FEA38
:1001A00041044FEA430594EA050F08BF90EA020FA5
:1001B0001FBF54EA000C55EA020C7FEA645C7FEA38
:1001C000655C00F0E2804FEA5454D4EB5555B8BF5B
:1001D0006D420CDD2C4480EA020281EA030382EACC
:1001E000000083EA010180EA020281EA0303362D5E
:1001F00088BF30BD11F0004F4FEA01314FF4801C31
:100200004CEA113102D0404261EB410113F0004F42
:100210004FEA03334CEA133302D0524263EB4303F9
:1002200094EA050F00F0A780A4F10104D5F1200E97
:100230000DDB02FA0EFC22FA05F2801841F10001F2
:1002400003FA0EF2801843FA05F359410EE0A5F1C6
:1002500020050EF1200E012A03FA0EFC28BF4CF0F7
:10026000020C43FA05F3C01851EBE37101F00045AD
:1002700007D54FF0000EDCF1000C7EEB00006EEBBA
:100280000101B1F5801F1BD3B1F5001F0CD3490844
:100290005FEA30004FEA3C0C04F101044FEA44529B
:1002A00012F5800F80F09A80BCF1004F08BF5FEA22
:1002B000500C50F1000041EB045141EA050130BD02
:1002C0005FEA4C0C404141EB010111F4801FA4F1A5
:1002D0000104E9D191F0000F04BF01460020B1FAFA
:1002E00081F308BF2033A3F10B03B3F120020CDA32
:1002F0000C3208DD02F1140CC2F10C0201FA0CF010
:1003000021FA02F10CE002F11402D8BFC2F1200C74
:1003100001FA02F120FA0CFCDCBF41EA0C0190402A
:10032000E41AA2BF01EB0451294330BD6FEA040473
:100330001F3C1CDA0C340EDC04F11404C4F120025E
:1003400020FA04F001FA02F340EA030021FA04F370
:1003500045EA030130BDC4F10C04C4F1200220FAC7
:1003600002F001FA04F340EA0300294630BD21FA05
:1003700004F0294630BD94F0000F83F4801306BFCB
:1003800081F480110134013D4EE77FEA645C18BFBF
:100390007FEA655C29D094EA050F08BF90EA020F56
:1003A00005D054EA000C04BF1946104630BD91EA4E
:1003B000030F1EBF0021002030BD5FEA545C05D151
:1003C0004000494128BF41F0004130BD14F5800490
:1003D0003CBF01F5801130BD01F0004545F0FE4104
:1003E00041F470014FF0000030BD7FEA645C1ABF39
:1003F000194610467FEA655C1CBF0B46024650EA70
:10040000013406BF52EA033591EA030F41F400219B
:1004100030BD00BF90F0000F04BF0021704730B521
:100420004FF4806404F132044FF000054FF00001F6
:1004300050E700BF90F0000F04BF0021704730B5B7
:100440004FF4806404F1320410F0004548BF40428C
:100450004FF000013EE700BF42004FEAE2014FEAE1
:1004600031014FEA02701FBF12F07F4393F07F4FBC
:1004700081F06051704792F0000F14BF93F07F4FEE
:10048000704730B54FF4607401F0004521F0004131
:1004900020E700BF50EA010208BF704730B54FF0B7
:1004A00000050AE050EA010208BF704730B511F0BC
:1004B000004502D5404261EB41014FF4806404F1F4
:1004C00032045FEA915C3FF4DCAE4FF003025FEA76
:1004D000DC0C18BF03325FEADC0C18BF033202EBFE
:1004E000DC02C2F1200300FA03FC20FA02F001FA58
:1004F00003FE40EA0E0021FA02F11444C1E600BFF7
:1005000070B54FF0FF0C4CF4E06C1CEA11541DBFA9
:100510001CEA135594EA0C0F95EA0C0F00F0DEF874
:100520002C4481EA030621EA4C5123EA4C5350EA59
:10053000013518BF52EA033541F4801143F48013AA
:1005400038D0A0FB02CE4FF00005E1FB02E506F03B
:100550000042E0FB03E54FF00006E1FB03569CF090
:10056000000F18BF4EF0010EA4F1FF04B6F5007F96
:1005700064F5407404D25FEA4E0E6D4146EB060608
:1005800042EAC62141EA55514FEAC52040EA5E5091
:100590004FEACE2EB4F1FD0C88BFBCF5E06F1ED83B
:1005A000BEF1004F08BF5FEA500E50F1000041EB72
:1005B000045170BD06F0004646EA010140EA02001F
:1005C00081EA0301B4EB5C04C2BFD4EB0C0541EA41
:1005D000045170BD41F480114FF0000E013C00F356
:1005E000AB8014F1360FDEBF002001F0004170BD7A
:1005F000C4F10004203C35DA0C341BDC04F1140493
:10060000C4F1200500FA05F320FA04F001FA05F21E
:1006100040EA020001F0004221F0004110EBD370EB
:1006200021FA04F642EB06015EEA430E08BF20EA17
:10063000D37070BDC4F10C04C4F1200500FA04F3BA
:1006400020FA05F001FA04F240EA020001F000414C
:1006500010EBD37041F100015EEA430E08BF20EABF
:10066000D37070BDC4F1200500FA05F24EEA020E07
:1006700020FA04F301FA05F243EA020321FA04F036
:1006800001F0004121FA04F220EA020000EBD370ED
:100690005EEA430E08BF20EAD37070BD94F0000FED
:1006A0000FD101F00046400041EB010111F4801F21
:1006B00008BF013CF7D041EA060195F0000F18BFD2
:1006C000704703F00046520043EB030313F4801F0E
:1006D00008BF013DF7D043EA0603704794EA0C0FC8
:1006E0000CEA135518BF95EA0C0F0CD050EA4106DE
:1006F00018BF52EA4306D1D181EA030101F000415B
:100700004FF0000070BD50EA410606BF1046194682
:1007100052EA430619D094EA0C0F02D150EA01368E
:1007200013D195EA0C0F05D152EA03361CBF1046CF
:1007300019460AD181EA030101F0004141F0FE416E
:1007400041F470014FF0000070BD41F0FE4141F4F2
:10075000780170BD70B54FF0FF0C4CF4E06C1CEAF2
:1007600011541DBF1CEA135594EA0C0F95EA0C0FA7
:1007700000F0A7F8A4EB050481EA030E52EA033562
:100780004FEA013100F088804FEA03334FF0805583
:1007900045EA131343EA12634FEA022245EA1115B0
:1007A00045EA10654FEA00260EF000419D4208BF61
:1007B000964244F1FD0404F5407402D25B084FEA0E
:1007C0003202B61A65EB03055B084FEA32024FF4BA
:1007D00080104FF4002CB6EB020E75EB030E22BF17
:1007E000B61A754640EA0C005B084FEA3202B6EBD7
:1007F000020E75EB030E22BFB61A754640EA5C0086
:100800005B084FEA3202B6EB020E75EB030E22BF15
:10081000B61A754640EA9C005B084FEA3202B6EB16
:10082000020E75EB030E22BFB61A754640EADC00D5
:1008300055EA060E18D04FEA051545EA16754FEA37
:1008400006164FEAC30343EA52734FEAC2025FEA55
:100850001C1CC0D111F4801F0BD141EA00014FF0E4
:1008600000004FF0004CB6E711F4801F04BF0143B5
:100870000020B4F1FD0C88BFBCF5E06F3FF6AFAED1
:10088000B5EB030C04BFB6EB020C5FEA500C50F161
:10089000000041EB045170BD0EF0004E4EEA1131E4
:1008A00014EB5C04C2BFD4EB0C0541EA045170BDEB
:1008B00041F480114FF0000E013C90E645EA060E2F
:1008C0008DE60CEA135594EA0C0F08BF95EA0C0F5D
:1008D0003FF43BAF94EA0C0F0AD150EA01347FF4A5
:1008E00034AF95EA0C0F7FF425AF104619462CE77C
:1008F00095EA0C0F06D152EA03353FF4FDAE1046DF
:10090000194622E750EA410618BF52EA43067FF42F
:10091000C5AE50EA41047FF40DAF52EA43057FF4BF
:10092000EBAE12E700000000000000000000000035
:100930004FEA410212F5001215D211D56FF4787307
:10094000B3EB625212D94FEAC12343F0004343EAAA
:10095000505311F0004F23FA02F018BF4042704785
:100960004FF00000704750EA013005D111F000400F
:1009700008BF6FF0004070474FF00000704700BFA5
:100980004FEA4102B2F1E04324BFB3F5001CDCF1B1
:10099000FE5C0DD901F0004C4FEAC0024CEA5070E9
:1009A000B2F1004F40EB830008BF20F00100704718
:1009B00011F0804F21D113F13872BCBF01F000401B
:1009C000704741F480114FEA5252C2F11802C2F14D
:1009D000200C10FA0CF320FA02F018BF40F00100CE
:1009E0004FEAC1234FEAD32303FA0CFC40EA0C0080
:1009F00023FA02F34FEA4303CCE77FEA625307D1BD
:100A000050EA01331EBF4FF0FE4040F440007047F3
:100A100001F0004040F0FE4040F40000704700BF8D
:100A2000704700BFAFF30080AFF30080AFF30080EA
:100A3000FEE700BFAFF30080AFF30080AFF30080AC
:100A400072B640F60004C2F2000484F309884EF640
:100A50003473CEF200034FF040421A604EF68853D2
:100A6000CEF200034EF68852CEF20002126842F433
:100A700070021A604FF00004E1EE104A4EF63C732B
:100A8000CEF200031C604FF0060484F31488BFF319
:100A90006F8F40F20004C2F2000440F20045C2F23F
:100AA000000504E04FF05533236004F10404AC4228
:100AB000F8D340F20044C2F2000440F60005C2F24E
:100AC000000504E04FF05533236004F10404AC4208
:100AD000F8D303F0B5FA45F62035C0F6000540F628
:100AE0000004C2F2000405E02B68236004F1040452
:100AF00005F1040540F60C03C2F200039C42F3D357
:100B000040F61004C2F2000441F25465C2F200053E
:100B100004E04FF00003236004F10404AC42F8D376
:100B2000FFF77EFF40F28814C0F6000403E023685C
:100B3000984704F1040440F28813C0F600039C4275
:100B4000F5D303F015FE40F28814C0F6000403E06C
:100B50002368984704F1040440F28813C0F60003A8
:100B60009C42F5D3FFF764FFAFF30080AFF3008042
:100B7000FEE700BFAFF30080AFF30080AFF300806B
:100B800072B6FEE7AFF30080AFF30080AFF30080F2
:100B900008B500F005FB4FF0200383F3118800F047
:100BA000BFFA00F0EDF900F0DBFA4FF0000383F339
:100BB000118800F025FB00F053F808BDAFF300806A
:100BC00010B483B0EFF309840194019B03F168032F
:100BD00001934EF63073CEF20003019A526E5A60C2
:100BE0004EF63073CEF200034EF63072CEF20002B3
:100BF000926802F168029A60019B83F309884FF0C2
:100C0000000383F3118803B010BC7047AFF300807A
:100C100008B54FF46D43CEF200034FF000029A6026
:100C20004FF46D43CEF200034FF44072C0F2FA521B
:100C3000DA604FF007004FF0100100F009F94FF0B3
:100C40000A004FF4007100F003F94FF00B004FF071
:100C5000800100F0FDF808BDAFF30080AFF3008025
:100C600010B483B04FF0200383F311884FF46D4329
:100C7000CEF200035B6803F40063002B5ED0EFF359
:100C800009840194019BA3F168030193019B83F301
:100C90000988019B4FF08072DA6140F6D853C2F2A6
:100CA00000039B6993F82330002B11D040F6D853F2
:100CB000C2F200031B689A6840F6D853C2F20003E0
:100CC0009B699B689A4294BF00230123DBB210E02A
:100CD00040F6D853C2F200031B689A6840F6D85316
:100CE000C2F200039B699B689A4234BF0023012330
:100CF000DBB2002B08D0019A40F65153C0F6000336
:100D00009361F1EE10FA05E0019A40F65C53C0F6EB
:100D100000039361019B03F168024EF63073CEF23B
:100D200000035B680093009B53664EF63073CEF26F
:100D30000003009A42F001025A6003E04FF0000302
:100D400083F3118803B010BC704700BFAFF300807D
:100D500000F0A6F900F034FE00F0C2F900DF00BF99
:100D600003460A462DE9F04F2DED108AC2F80CD04B
:100D7000D3F80CD0BDEC108ABDE8F08FAFF3008043
:100D800008B500F0ADF94FF0000383F31188284651
:100D9000A04700F04DFF08BDAFF30080AFF3008027
:100DA00010B485B001900091019B03F003034FEA5A
:100DB000C30303934FF46143CEF20003019A4FEA59
:100DC00092004FF46142CEF2000201994FEA910184
:100DD00001F1C00152F82110039A4FF0FF0404FA08
:100DE00002F26FEA02021140039A009C04FA02F236
:100DF000114300F1C00243F822104FF46143CEF2D8
:100E00000003019A4FEA5212019901F01F014FF0BD
:100E1000010000FA01F102F1600243F822104FF4E0
:100E20006143CEF20003019A4FEA5212019901F098
:100E30001F014FF0010000FA01F143F8221005B044
:100E400010BC7047AFF30080AFF30080AFF30080B9
:100E500010B485B001900091019B03F003034FEAA9
:100E6000C30303934FF46D43CEF20003019A4FEA9C
:100E700092004FF46D42CEF2000201994FEA9101C7
:100E800001F1060152F82110039A4FF0FF0404FA11
:100E900002F26FEA02021140039A009C04FA02F285
:100EA000114300F1060243F8221005B010BC704750
:100EB00082B0019040F6D853C2F200039A6944F61A
:100EC0008063C0F600039361FEE700BFAFF30080CC
:100ED00000B583B0FFF79CFE00F04AFB00F060FA1B
:100EE00001F046FA01F0B4FA00F0EAF940F66810B1
:100EF000C2F200004FF0400100F082FD024640F6D1
:100F0000D853C2F200039A6140F6D853C2F20003EC
:100F10009B694FF0010283F8202040F6D853C2F2BB
:100F200000039A6940F20043C2F20003D36100F06B
:100F30009FF84FF0000383F3118862B640F6D85350
:100F4000C2F200039A6945F2E043C0F600039361E0
:100F50004FF00003009340F61000C2F200004FF47F
:100F6000AC714FF0010240F6B163C0F6000300F02F
:100F7000FFFD03B000BD00BFAFF30080AFF3008002
:100F800000B583B000F06CF940F6D853C2F200030C
:100F90009B6993F82330002B0BD040F6D853C2F254
:100FA00000039B6993F8232002F1FF32D2B283F849
:100FB000232040F6D853C2F200039B695A6A02F11B
:100FC00001025A6240F6C853C2F20003DB6803F123
:100FD000010240F6C853C2F20003DA6040F6C8537B
:100FE000C2F200031A6840F6C853C2F200039A42E4
:100FF00039D040F6C853C2F200031B689A6802F168
:10100000FF329A6025E0019BDB680093019B4FF063
:101010000002DA60019B1A6840F6C853C2F200036E
:101020005360019B1A6840F6C853C2F200031A606D
:1010300000F096F84FF0000383F31188019B1A69C2
:10104000009B104698474FF0200383F3118800F06F
:1010500067F840F6C853C2F200031B680193019B76
:101060009B68002BCFD003B000BD00BFAFF3008062
:1010700008B540F6B413C2F200031B68002B06D17A
:1010800040F6B813C2F200031B68002B05D044F6EB
:10109000A060C0F6000000F073F908BDAFF3008057
:1010A00008B540F6B413C2F200031B68002B06D14A
:1010B00040F6B813C2F200031B68002B05D044F6BB
:1010C000A860C0F6000000F05BF940F6B813C2F269
:1010D00000034FF001021A6008BD00BFAFF30080AB
:1010E00008B540F6B413C2F200031B68002B06D10A
:1010F00040F6B813C2F200031B68002B05DC44F66F
:10110000B060C0F6000000F03BF940F6B813C2F240
:1011100000034FF000021A6008BD00BFAFF300806B
:1011200008B540F6B413C2F200031B68002B06DDBD
:1011300040F6B813C2F200031B68002B05D044F63A
:10114000B860C0F6000000F01BF940F6B813C2F218
:1011500000034FF001021A6008BD00BFAFF300802A
:1011600008B540F6B413C2F200031B68002B06DD7D
:1011700040F6B813C2F200031B68002B05DC44F6EE
:10118000C060C0F6000000F0FBF840F6B813C2F2F1
:1011900000034FF000021A6008BD00BFAFF30080EB
:1011A00008B54FF0200383F3118840F6B413C2F260
:1011B00000031B68002B06DB40F6B813C2F20003E5
:1011C0001B68002B05D044F6C860C0F6000000F094
:1011D000D7F840F6B413C2F200031B6803F1010212
:1011E00040F6B413C2F200031A604FF0000383F319
:1011F000118808BDAFF30080AFF30080AFF300802B
:1012000008B54FF0200383F3118840F6B413C2F2FF
:1012100000031B68002B06DD40F6B813C2F2000382
:101220001B68002B05D044F6D060C0F6000000F02B
:10123000A7F840F6B413C2F200031B6803F1FF32B3
:1012400040F6B413C2F200031A604FF0000383F3B8
:10125000118808BDAFF30080AFF30080AFF30080CA
:1012600008B540F6B413C2F200031B68002B06DB7E
:1012700040F6B813C2F200031B68002B05DC44F6ED
:10128000D860C0F6000000F07BF808BDAFF3008026
:1012900008B540F6B413C2F200031B68002B06D158
:1012A00040F6B813C2F200031B68002B05DC44F6BD
:1012B000E060C0F6000000F063F808BDAFF3008006
:1012C00040F6BC13C2F200034FF040021A6040F631
:1012D000BC13C2F20003014A5A607047C4090020DF
:1012E00082B0019040F6BC13C2F200035A6840F687
:1012F000C853C2F20003DB68136040F6BC13C2F2AD
:1013000000035A6840F6D853C2F200039B69536049
:1013100040F6BC13C2F200035B68019A926A9A60BD
:1013200040F6BC13C2F200035B68019A92F82020D9
:101330001A7340F6BC13C2F200035B6803F110029B
:1013400040F6BC13C2F200035A6040F6BC13C2F26E
:1013500000035A68054B9A4205D340F6BC13C2F20B
:101360000003034A5A6002B0704700BFC40D00205A
:10137000C4090020AFF30080AFF30080AFF300801A
:1013800000B583B0019040F6C453C2F20003019A45
:101390001A60FFF7F5FB03B000BD00BFAFF300809C
:1013A00040F6C853C2F2000340F6C852C2F200022F
:1013B0005A6040F6C853C2F200035A6840F6C85358
:1013C000C2F200031A6040F6C853C2F200034FF0A5
:1013D000FF329A6040F6C853C2F200034FF0000299
:1013E000DA607047AFF30080AFF30080AFF30080A6
:1013F00000B587B00390029101920093FFF730FF90
:10140000039B002B05D0019B002B02D0029B002BDD
:1014100005D144F6F060C0F60000FFF7B1FF039B72
:10142000009A1A61039B019ADA6040F6C853C2F22F
:1014300000031B68059307E0059B9B68029AD31A7B
:101440000293059B1B680593059B9A68029B9A4231
:10145000F2D3039B059A1A60039B1B685A68039B8F
:101460005A60039B5B68059A03995160059A52681C
:101470001A60039B029A9A60059A40F6C853C2F21A
:1014800000039A4205D0059B9A68029BD21A059BDD
:101490009A6007B000BD00BFAFF30080AFF30080DB
:1014A00000B583B00190FFF7DBFE019B002B05D157
:1014B00044F60070C0F60000FFF762FF019BDB6896
:1014C000002B05D144F61070C0F60000FFF758FF5E
:1014D000019B1A6840F6C853C2F200039A4208D032
:1014E000019B1B68019A12689168019A92688A1898
:1014F0009A60019B5B68019A12681A60019B1B68E5
:10150000019A52685A60019B4FF00002DA6003B002
:1015100000BD00BFAFF30080AFF30080AFF30080E9
:1015200084B00190019B1B680393039B1A68019B85
:101530001A60019B1B68019A5A60039B184604B00D
:10154000704700BFAFF30080AFF30080AFF30080BF
:1015500082B00190019B5B68019A12681A60019B3E
:101560001B68019A52685A60019B184602B0704786
:1015700040F6D853C2F2000340F6D852C2F200023D
:101580005A6040F6D853C2F200035A6840F6D85366
:10159000C2F200031A6040F6D853C2F200034FF0C3
:1015A00000029A6040F6D853C2F2000340F6D852C7
:1015B000C2F200025A6140F6D853C2F200035A69DF
:1015C00040F6D853C2F200031A617047AFF30080AF
:1015D00000B585B00190FFF743FE019B93F82030E2
:1015E000002B04D0019B93F820300E2B05D144F63C
:1015F0003070C0F60000FFF7C3FE019B4FF0000201
:1016000083F8202040F6D853C2F200030393039BD3
:101610001B680393039B9A68019B9B689A42F6D2CE
:10162000019B039A1A60039B5A68019B5A60019BB5
:101630005B68039A01995160039A52681A60019B92
:10164000184605B000BD00BFAFF30080AFF30080C7
:1016500000B585B003468DF80730FFF719FE40F658
:10166000D853C2F200039B690393039B9DF80720A4
:1016700083F82020039B4FF0140283F8232040F6C8
:10168000D850C2F20000FFF74BFF024640F6D85395
:10169000C2F200039A6140F6D853C2F200039B697C
:1016A0004FF0010283F820200398FFF719FE6B46E4
:1016B000A3F16402039BDB699A4205D244F64470AD
:1016C000C0F60000FFF75CFE40F6D853C2F20003FC
:1016D0009B6918460399FFF743FB05B000BD00BFA7
:1016E00000B585B00190019B03934FF0200383F375
:1016F0001188FFF715FD039B93F820300D2B2FD891
:1017000001A252F823F000BF41170008611700083A
:10171000611700084F170008611700085B170008E1
:1017200061170008611700086117000861170008B9
:101730006117000861170008611700085B170008AF
:10174000FFF70EFD4FF0000383F3118815E0039BB4
:101750009B6A9A6802F101029A600398FFF7F8FE0B
:10176000039B4FF0FF329A620398FFF731FFFFF7B8
:10177000F7FC4FF0000383F3118805B000BD00BFF4
:1017800000B589B0034600918DF80730FFF780FD62
:10179000009BB3F1FF3F1AD040F6D853C2F20003CA
:1017A0009B6903AA1046009941F2E162C0F600026B
:1017B000FFF71EFE9DF807301846FFF749FF069B0E
:1017C000002B09D003AB1846FFF76AFE04E09DF832
:1017D00007301846FFF73CFF40F6D853C2F200032B
:1017E0009B699B6A184609B000BD00BFAFF300803B
:1017F00000B585B001900091FFF74AFD019B009A6A
:101800009A62019B9A6840F6D853C2F200039B6922
:101810009B689A4203D80198FFF7DAFE27E040F66A
:10182000D853C2F200039B691846FFF7D1FE03901C
:1018300040F6D853C2F20003019A9A61019B4FF01F
:10184000010283F820200398FFF74AFD6B46A3F1BD
:101850006402039BDB699A4205D244F64470C0F6E9
:101860000000FFF78DFD01980399FFF779FA05B0A5
:1018700000BD00BFAFF30080AFF30080AFF3008086
:1018800000B583B040F6D853C2F200039B690193C0
:1018900040F6D850C2F20000FFF742FE024640F682
:1018A000D853C2F200039A6140F6D853C2F2000343
:1018B0009B694FF0010283F82020019B4FF0140236
:1018C00083F823200198FFF783FE0198FFF708FDB6
:1018D0006B46A3F16402019BDB699A4205D244F690
:1018E0004470C0F60000FFF74BFD40F6D853C2F23B
:1018F00000039B6918460199FFF732FA03B000BD57
:1019000000B583B040F6D853C2F200039B69009340
:1019100040F6D850C2F20000FFF702FE024640F641
:10192000D853C2F200039A6140F6D853C2F20003C2
:101930009B694FF0010283F82020009B4FF00002CA
:1019400083F8202040F6D853C2F200030193019B94
:101950001B680193019B9A68009B9B689A42F6D88A
:10196000009B019A1A60019B5A68009B5A60009B79
:101970005B68019A00995160019A52681A60009858
:10198000FFF7AEFC6B46A3F16402009BDB699A4251
:1019900005D244F64470C0F60000FFF7F1FC40F6B3
:1019A000D853C2F200039B6918460099FFF7D8F993
:1019B00003B000BDAFF30080AFF30080AFF3008051
:1019C00008B540F6D853C2F200039B6993F8233060
:1019D000002B02D1FFF754FF01E0FFF791FF08BD94
:1019E00084B00190019B1B680393039B1A68019BC1
:1019F0001A60039B184604B0704700BFAFF3008025
:101A000082B001900091019B009A9A60019B4FF077
:101A1000020283F82020019B4FF0000283F821206E
:101A2000019B4FF0140283F82320019B009A5A6413
:101A3000019B4FF000021A64019B4FF00002DA6331
:101A4000019B4FF000025A62019B4FF0010283F8A4
:101A50002220019B4FF000029A61019A40F6D85370
:101A6000C2F20003136140F6D853C2F200035A6970
:101A7000019B5A61019B5A6940F6D853C2F2000398
:101A80000199596140F6D853C2F200035B691361B2
:101A9000019B03F12C02019BDA62019B03F13002EE
:101AA000019B5A63019B5A6B019B1A63019B03F1D3
:101AB0004C02019BDA61019B184602B0704700BFDF
:101AC00084B00390029113468DF8073007E0039B22
:101AD0009DF807201A70039B03F101030393039AF7
:101AE000029B9A42F3D304B0704700BFAFF300806B
:101AF00000B587B00390029101920093039B059378
:101B0000FFF7AEFB039B002B0AD0029A40F237137B
:101B10009A4205D9019B7F2B02D8009B002B05D14F
:101B200044F66070C0F60000FFF72AFC029BA3F1A8
:101B30006403039AD218059BDA60059BDB68009A60
:101B40001A64059BDB68089A5A64059BDA6840F6BC
:101B50008153C0F60003136605980199FFF750FF03
:101B60000346184607B000BDAFF30080AFF3008016
:101B700000B589B00590049103920293059B03F18F
:101B80004C03059819464FF0FF02FFF799FF059B9C
:101B900003F14C020599049BCB18104619464FF0EF
:101BA0005502FFF78DFF4FF0200383F31188FFF7F5
:101BB00077FA0A9B009305980499039A029BFFF712
:101BC00097FF079007984FF00001FFF711FEFFF70E
:101BD00087FA4FF0000383F31188079B184609B07A
:101BE00000BD00BFAFF30080AFF30080AFF3008013
:101BF00000B583B00190019B002B05D144F6A07085
:101C0000C0F60000FFF7BCFB4FF0200383F3118800
:101C1000FFF746FA4FF006000199FFF7B1FDFFF715
:101C20005FFA4FF0000383F3118803B000BD00BFDB
:101C300000B583B001904FF0200383F31188FFF7C4
:101C40002FFA019800F004F803B000BDAFF3008054
:101C500000B585B0019040F6D853C2F200039B69ED
:101C60000393039B019A9A6209E0039B03F12C03FF
:101C70001846FFF7B5FE03461846FFF7A9FC039B7D
:101C8000DA6A039B03F12C039A42EED1039B93F88B
:101C9000213003F00303002B09D1039B5B69039AF6
:101CA00012691A61039B1B69039A52695A614FF0CA
:101CB0000E00FFF7CDFC44F6B070C0F60000FFF751
:101CC0005FFB05B000BD00BFAFF30080AFF3008045
:101CD00000B583B00190019B002B05D145F20000B7
:101CE000C0F60000FFF74CFB019A019B5A60019B74
:101CF0005A68019B1A60019B4FF000029A6003B082
:101D000000BD00BFAFF30080AFF30080AFF30080F1
:101D100000B585B001900091FFF7A2FA019B002B5E
:101D200005D145F2DC00C0F60000FFF729FB019B5E
:101D30001B68039310E0039BDA68009B1A43039B24
:101D4000DA60039B5A68039B9B681046194600F0B3
:101D50000FF8039B1B680393039A019B9A42EAD1F5
:101D600005B000BDAFF30080AFF30080AFF300809B
:101D700000B583B001900091FFF772FA019B002B30
:101D800005D145F20410C0F60000FFF7F9FA019BF7
:101D9000DA6B009B1A43019BDA63019B93F82030B6
:101DA000082B06D1019BDA6B019B9B6A1340002B29
:101DB0000DD1019B93F82030092B0FD1019BDA6BD9
:101DC000019B9B6A1A40019B9B6A9A4206D101982B
:101DD000FFF7FEFB03464FF000029A6203B000BD1E
:101DE00082B001900091019B009A1A60009B5A6892
:101DF000019B5A60019B5B68009A01995160009AAF
:101E000052681A6002B07047AFF30080AFF30080F1
:101E100084B00190019B1B680393039B1A68019B8C
:101E20001A60019B1B68019A5A60039B184604B014
:101E3000704700BFAFF30080AFF30080AFF30080C6
:101E400000B583B001900091009B002B02D14FF0B0
:101E5000FF3316E040F6D853C2F200039B69019AA3
:101E60009A6240F6D853C2F200039A69019B104669
:101E70001946FFF7B5FF4FF00D000099FFF780FC02
:101E80000346184603B000BDAFF30080AFF30080F7
:101E900084B00390029101920093039A039B5A60CD
:101EA000039B5A68039B1A60039B4FF000029A60E1
:101EB000039B029A5A61039B5A69039B9A61039B95
:101EC0009A69039BDA60029A019BD218039B1A61FC
:101ED000039B009ADA61039B049A1A6204B070476C
:101EE00000B583B001900B468DF80330FFF7B8F9C9
:101EF000019B5A69019B9B699A4206D1019B9B6891
:101F0000002B02D04FF0010301E04FF0000303F07B
:101F10000103DBB2002B02D06FF003032BE0019B27
:101F20009B6803F10102019B9A60019B5B699DF82C
:101F300003201A7003F10102019B5A61019B5A6947
:101F4000019B1B699A4203D3019BDA68019B5A618A
:101F5000019B1A68019B9A420BD0019B1846FFF720
:101F600057FF03461846FFF733FB03464FF00002C6
:101F70009A624FF00003184603B000BDAFF3008033
:101F800000B585B0019000914FF0200383F31188D4
:101F9000FFF786F8019BDB69002B14D0019BDB69FE
:101FA000019898470FE001980099FFF749FF0390C7
:101FB000039B002B08DAFFF793F84FF0000383F33D
:101FC0001188039B25E000BF019B9B68002BEAD092
:101FD000019B9B6803F1FF32019B9A60019B9B6907
:101FE0001A788DF80B2003F10102019B9A61019B85
:101FF0009A69019B1B699A4203D3019BDA68019B92
:102000009A61FFF76DF84FF0000383F311889DF894
:102010000B30184605B000BDAFF30080AFF3008071
:1020200000B587B00390029101920093039BDB6996
:1020300004934FF000030593019B002B05D145F25B
:102040004010C0F60000FFF79BF94FF0200383F328
:102050001188FFF725F8049B002B12D0049B0398EE
:1020600098470EE003980099FFF7EAFE0346002B1D
:1020700008D0FFF735F84FF0000383F31188059B74
:102080003BE000BF039B9B68002BEBD0039B9B684E
:1020900003F1FF32039B9A60039B9B691978029AB4
:1020A0001170029A02F10102029203F10102039BF4
:1020B0009A61039B9A69039B1B699A4203D3039B12
:1020C000DA68039B9A61FFF70BF84FF0000383F384
:1020D0001188059B03F101030593019B03F1FF3375
:1020E0000193019B002B01D1059B06E04FF02003DB
:1020F00083F31188FEF7D4FFADE7184607B000BDA3
:1021000084B00390029101920093039A039B5A605A
:10211000039B5A68039B1A60039B019A9A60039B76
:10212000029A5A61039B5A69039B9A61039B9A69BD
:10213000039BDA60029A019BD218039B1A61039BEE
:10214000009ADA61039B049A1A6204B0704700BFD8
:1021500000B587B003900B4601928DF80B304FF01D
:10216000200383F31188FEF79BFF0FE0039801998A
:10217000FFF766FE0590059B002B07DAFEF7B0FF20
:102180004FF0000383F31188059B2CE0039B9B68B1
:10219000002BEBD0039B9B6803F1FF32039B9A60FB
:1021A000039B5B699DF80B201A7003F10102039BEE
:1021B0005A61039B5A69039B1B699A4203D3039B91
:1021C000DA68039B5A61039BDB69002B03D0039BF6
:1021D000DB6903989847FEF783FF4FF0000383F312
:1021E00011884FF00003184607B000BDAFF3008020
:1021F00000B585B00190FFF733F8019B5A69019B48
:102200009B699A4206D1019B9B68002B02D04FF03C
:10221000010301E04FF0000303F00103DBB2002BE8
:1022200002D06FF002032BE0019B9B6803F10102D7
:10223000019B9A60019B9B691A788DF80F2003F12E
:102240000102019B9A61019B9A69019B1B699A4259
:1022500003D3019BDA68019B9A61019B1A68019B79
:102260009A420BD0019B1846FFF7D2FD0346184651
:10227000FFF7AEF903464FF000029A629DF80F3067
:10228000184605B000BD00BFAFF30080AFF300807B
:1022900000B587B00390029101920093039BDB6924
:1022A00004934FF000030593019B002B05D145F2E9
:1022B0005410C0F60000FFF763F84FF0200383F3DB
:1022C0001188FEF7EDFE0EE003980099FFF7B8FDC8
:1022D0000346002B07D0FEF703FF4FF0000383F304
:1022E0001188059B41E0039B9B68002BECD0039B6E
:1022F0009B6803F1FF32039B9A60039B5B69029A20
:1023000012781A7003F10102039B5A61029B03F1D8
:1023100001030293039B5A69039B1B699A4203D3EF
:10232000039BDA68039B5A61049B002B02D0049B39
:1023300003989847FEF7D4FE4FF0000383F311880B
:10234000059B03F101030593019B03F1FF33019307
:10235000019B002B01D1059B07E04FF0200383F385
:102360001188FEF79DFE00BFBDE7184607B000BD0F
:1023700041F25463C2F2000303F1070323F00703A1
:102380001A4640F6F453C2F200031A604CF20003FE
:10239000C2F2010323F007031A4640F6F853C2F2D3
:1023A00000031A60704700BFAFF30080AFF30080F6
:1023B00000B585B001904FF0200383F31188FEF73C
:1023C0006FFE019800F00CF80390FEF789FE4FF0C5
:1023D000000383F31188039B184605B000BD00BFBE
:1023E00000B585B00190FEF73BFF019B03F10703A9
:1023F00023F00703019340F6F853C2F200031B6871
:102400001A4640F6F453C2F200031B68D31A1A4668
:10241000019B9A4202D24FF0000312E040F6F453BF
:10242000C2F200031B68039340F6F453C2F20003A8
:102430001A68019BD21840F6F453C2F200031A60E6
:10244000039B184605B000BDAFF30080AFF30080DA
:1024500008B540F60063C2F2000342F2B132C0F6A2
:1024600000021A6040F60063C2F200034FF000025F
:102470009A6040F60063C2F200034FF00002DA6097
:102480000148FFF725FC08BD100E0020AFF30080C7
:1024900008B500F0ADFE45F2F050C0F6000001F0C6
:1024A0001FF800F0C5F800F073F900F009F801F02A
:1024B000CFFD08BDAFF30080AFF30080AFF3008025
:1024C00008B501F035F908BDAFF30080AFF3008027
:1024D00000B585B0039002910192039B03F1300394
:1024E00018460299019A4FF0FF33FFF7D1FE0346D9
:1024F000184605B000BD00BFAFF30080AFF3008009
:1025000000B585B0039002910192039B03F10C0387
:1025100018460299019A4FF0FF33FFF781FD0346F9
:10252000184605B000BD00BFAFF30080AFF30080D8
:1025300000B583B001900B468DF80330019B03F189
:1025400030029DF80330104619464FF0FF32FFF776
:10255000FFFD0346184603B000BD00BFAFF3008087
:1025600000B583B00190019B03F10C0318464FF0B6
:10257000FF31FFF705FD0346184603B000BD00BF5D
:1025800000B585B003900B4601928DF80B30039B8C
:1025900003F130029DF80B3010461946019AFFF7FF
:1025A000D7FD0346184605B000BD00BFAFF300805D
:1025B00000B583B001900091019B03F10C03184614
:1025C0000099FFF7DDFC0346184603B000BD00BFCD
:1025D00000B585B00390029101920093039B03F133
:1025E000300318460299019A009BFFF751FE0346FB
:1025F000184605B000BD00BFAFF30080AFF3008008
:1026000000B585B00390029101920093039B03F102
:102610000C0318460299019A009BFFF701FD03463F
:10262000184605B000BD00BFAFF30080AFF30080D7
:1026300008B501F08DFC08BDAFF30080AFF300805A
:1026400000B587B0059004910392059A45F20053B6
:10265000C0F600031360059B03F10402059B5A605A
:10266000059B4FF001021A72059B03F10C02059BBA
:1026700003F1540305990091104619464FF04002AA
:10268000049BFFF705FC059B03F13002059B03F15A
:10269000940305990091104619464FF04002039BA0
:1026A000FFF72EFD07B000BDAFF30080AFF3008051
:1026B00000B583B001900091019B002B05D145F23C
:1026C0007010C0F60000FEF75BFE4FF0200383F3AE
:1026D0001188FEF7E5FC019B1B7A012B09D0019BB9
:1026E0001B7A022B05D045F27C10C0F60000FEF7E5
:1026F00047FE0198009901F05BFC019B4FF002023C
:102700001A72FEF7EDFC4FF0000383F3118803B05B
:1027100000BD00BFAFF30080AFF30080AFF30080D7
:1027200000B583B001900B468DF80330FEF798FD9D
:10273000019B002B05D145F2A810C0F60000FEF762
:102740001FFE019B5B69002B07D1019B03F1040372
:1027500018464FF00401FFF7DBFA019B03F10C026E
:102760009DF8033010461946FFF7BAFB0346002BCD
:1027700007DA019B03F1040318464FF08001FFF7CD
:10278000C7FA03B000BD00BFAFF30080AFF3008015
:1027900008B501F0CDF808BDAFF30080AFF30080BD
:1027A00000B583B00190019B4FF001021A70019BAC
:1027B0004FF000025A60019B4FF000029A60019BAB
:1027C00003F10C031846FFF783FA03B000BD00BF06
:1027D00000B583B001900091019B002B02D0009BBB
:1027E000002B05D145F2D010C0F60000FEF7C8FD61
:1027F0004FF0200383F31188FEF752FC019B1B78F6
:10280000012B09D0019B1B78022B05D045F2E0106B
:10281000C0F60000FEF7B4FD019B009A5A600198D3
:1028200001F0C6F8019B4FF002021A70FEF758FC47
:102830004FF0000383F3118803B000BDAFF30080B5
:1028400000B583B00190019B002B05D145F20C200F
:10285000C0F60000FEF794FD4FF0200383F31188CB
:10286000FEF71EFC019B1B78022B05D045F21C20B5
:10287000C0F60000FEF784FD019801F039F9FEF77B
:102880002FFC4FF0000383F3118803B000BD00BF9D
:1028900000B583B00190019B002B05D145F22C209F
:1028A000C0F60000FEF76CFD4FF0200383F31188A3
:1028B000FEF7F6FB019B1B78022B05D045F23C206E
:1028C000C0F60000FEF75CFD019801F021F9FEF76B
:1028D00007FC4FF0000383F3118803B000BD00BF75
:1028E00000B585B0039002910192039B002B05D0A7
:1028F000029B002B02D0019B002B05D145F2AC209E
:10290000C0F60000FEF73CFD4FF0200383F3118872
:10291000FEF7C6FB039B1B78022B05D045F2C020B7
:10292000C0F60000FEF72CFD039B4FF003021A7067
:1029300003980299019A01F0FBF8FEF7D1FB4FF0E2
:10294000000383F3118805B000BD00BFAFF3008022
:1029500000B583B0FEF724FC4FF4C043C4F2020379
:102960001B6803F03D0301934FF4C043C4F202031C
:102970004FF03D029A6040F62463C2F200031B68E8
:10298000002B0CD040F62463C2F200031A6840F614
:102990002463C2F200035B68184601999047FEF772
:1029A0002FFCFEF75DF903B000BD00BFAFF3008060
:1029B00000B583B0FEF7F4FB4FF4C043C4F202034A
:1029C0001B684FEA931303F03D0301934FF4C04398
:1029D000C4F202034FF474629A6040F62463C2F2B8
:1029E00000039B68002B0CD040F62463C2F2000366
:1029F0009A6840F62463C2F20003DB681846019926
:102A00009047FEF7FDFBFEF72BF903B000BD00BFBA
:102A100000B583B0FEF7C4FB4FF4C043C4F2020319
:102A20001B684FEA134303F03D0301934FF4C04387
:102A3000C4F202034FF474129A6040F62463C2F2A7
:102A400000031B69002B0CD040F62463C2F2000384
:102A50001A6940F62463C2F200035B6918460199C3
:102A60009047FEF7CDFBFEF7FBF803B000BD00BFBB
:102A700000B583B0FEF794FB4FF4C043C4F20203E9
:102A80001B684FEA935303F03D0301934FF4C04397
:102A9000C4F202034FF074629A6040F62463C2F2FB
:102AA00000039B69002B0CD040F62463C2F20003A4
:102AB0009A6940F62463C2F20003DB691846019963
:102AC0009047FEF79DFBFEF7CBF803B000BD00BFBB
:102AD00000B583B0FEF764FB4FF4C043C4F20203B9
:102AE0005B6803F03D0301934FF4C043C4F202035B
:102AF0004FF03D02DA6040F62463C2F200031B6A25
:102B0000002B0CD040F62463C2F200031A6A40F690
:102B10002463C2F200035B6A184601999047FEF7EE
:102B20006FFBFEF79DF803B000BD00BFAFF3008060
:102B300000B583B0FEF734FB4FF4C043C4F2020388
:102B40005B684FEA931303F03D0301934FF4C043D6
:102B5000C4F202034FF47462DA6040F62463C2F2F6
:102B600000039B6A002B0CD040F62463C2F20003E2
:102B70009A6A40F62463C2F20003DB6A18460199A0
:102B80009047FEF73DFBFEF76BF803B000BD00BFBA
:102B900000B583B0FEF704FB4FF4C043C4F2020358
:102BA0005B684FEA134303F03D0301934FF4C043C6
:102BB000C4F202034FF47412DA6040F62463C2F2E6
:102BC00000031B6B002B0CD040F62463C2F2000301
:102BD0001A6B40F62463C2F200035B6B184601993E
:102BE0009047FEF70DFBFEF73BF803B000BD00BFBA
:102BF00000B583B0FEF7D4FA4FF4C043C4F2020329
:102C00005B684FEA935303F03D0301934FF4C043D5
:102C1000C4F202034FF07462DA6040F62463C2F239
:102C200000039B6B002B0CD040F62463C2F2000320
:102C30009A6B40F62463C2F20003DB6B18460199DD
:102C40009047FEF7DDFAFEF70BF803B000BD00BFBA
:102C500000B583B0FEF7A4FA4FF4C843C4F20203F0
:102C60001B6803F03D0301934FF4C843C4F2020311
:102C70004FF03D029A6040F62463C2F200031B6CE1
:102C8000002B0CD040F62463C2F200031A6C40F60D
:102C90002463C2F200035B6C184601999047FEF76B
:102CA000AFFAFDF7DDFF03B000BD00BFAFF300805A
:102CB00000B583B0FEF774FA4FF4C843C4F20203C0
:102CC0001B684FEA931303F03D0301934FF4C8438D
:102CD000C4F202034FF474629A6040F62463C2F2B5
:102CE00000039B6C002B0CD040F62463C2F200035F
:102CF0009A6C40F62463C2F20003DB6C184601991B
:102D00009047FEF77DFAFDF7ABFF03B000BD00BFB3
:102D100000B583B0FEF744FA4FF4C843C4F202038F
:102D20001B684FEA134303F03D0301934FF4C8437C
:102D3000C4F202034FF474129A6040F62463C2F2A4
:102D400000031B6D002B0CD040F62463C2F200037D
:102D50001A6D40F62463C2F200035B6D18460199B8
:102D60009047FEF74DFAFDF77BFF03B000BD00BFB3
:102D700000B583B0FEF714FA4FF4C843C4F202035F
:102D80001B684FEA935303F03D0301934FF4C8438C
:102D9000C4F202034FF074629A6040F62463C2F2F8
:102DA00000039B6D002B0CD040F62463C2F200039D
:102DB0009A6D40F62463C2F20003DB6D1846019958
:102DC0009047FEF71DFAFDF74BFF03B000BD00BFB3
:102DD00000B583B0FEF7E4F94FF4C843C4F2020330
:102DE0005B6803F03D0301934FF4C843C4F2020350
:102DF0004FF03D02DA6040F62463C2F200031B6E1E
:102E0000002B0CD040F62463C2F200031A6E40F689
:102E10002463C2F200035B6E184601999047FEF7E7
:102E2000EFF9FDF71DFF03B000BD00BFAFF3008059
:102E300000B583B0FEF7B4F94FF4C843C4F20203FF
:102E40005B684FEA931303F03D0301934FF4C843CB
:102E5000C4F202034FF47462DA6040F62463C2F2F3
:102E600000039B6E002B0CD040F62463C2F20003DB
:102E70009A6E40F62463C2F20003DB6E1846019995
:102E80009047FEF7BDF9FDF7EBFE03B000BD00BFB4
:102E900000B583B0FEF784F94FF4C843C4F20203CF
:102EA0005B684FEA134303F03D0301934FF4C843BB
:102EB000C4F202034FF47412DA6040F62463C2F2E3
:102EC00000031B6F002B0CD040F62463C2F20003FA
:102ED0001A6F40F62463C2F200035B6F1846019933
:102EE0009047FEF78DF9FDF7BBFE03B000BD00BFB4
:102EF00000B583B0FEF754F94FF4C843C4F202039F
:102F00005B684FEA935303F03D0301934FF4C843CA
:102F1000C4F202034FF07462DA6040F62463C2F236
:102F200000039B6F002B0CD040F62463C2F2000319
:102F30009A6F40F62463C2F20003DB6F18460199D2
:102F40009047FEF75DF9FDF78BFE03B000BD00BFB3
:102F500082B040F62063C2F200034FF000021A6014
:102F60004FF0000301931CE045F22052C0F600022E
:102F700001990B464FEA43035B184FEA8303D318CA
:102F80001B684FF000021A6040F62463C2F200038F
:102F9000019A4FF0000143F83210019B03F1010345
:102FA0000193019B0F2BDFDD4FF4C043C4F20203FA
:102FB0004FF0FF329A604FF4C043C4F202034FF067
:102FC000FF32DA604FF4C843C4F202034FF0FF321D
:102FD0009A604FF4C843C4F202034FF0FF32DA6044
:102FE00002B07047AFF30080AFF30080AFF3008012
:102FF00000B585B00390029101920093039B002BD2
:1030000005D145F21040C0F60000FEF7B9F9039B68
:103010005B7A4FF0010202FA03F31A4640F620638E
:10302000C2F200031B681340002B02D04FF00103D3
:1030300080E0039B5B7A1A4640F62463C2F20003E9
:10304000019943F83210039B5B7A40F62462C2F286
:1030500000024FEAC303D318009A5A60039B5B7ABD
:103060004FF0010202FA03F31A4640F62063C2F25F
:1030700000031B681A4340F62063C2F200031A6083
:1030800040F62063C2F200031B68DBB2002B0BD0BA
:103090004FF46053C4F202034FF46052C4F20202D0
:1030A000126B42F400121A6340F62063C2F200036E
:1030B0001B6803F47F43002B0BD04FF46053C4F222
:1030C00002034FF46052C4F20202126B42F4800217
:1030D0001A63039B1B68039A1268126822F01F028E
:1030E0001A60039B1B681B6803F00103002BF8D1D7
:1030F000039B5B68039A127A4FF03D0101FA02F2DA
:103100001A60039B1B684FF000021A60039B1B6848
:103110004FF021025A61019B002B09D0039B9B7A3F
:103120001A46029B4FEA031310461946FDF738FE74
:103130004FF00003184605B000BD00BFAFF300809C
:103140004FF4E043C4F200034FF4E042C4F2000243
:10315000126842F480721A604FF46053C4F20203A2
:103160001B6F03F44073B3F5007F0DD04FF4605331
:10317000C4F202034FF480321A674FF46053C4F272
:1031800002034FF000021A674FF46053C4F20203C7
:103190001B6F03F40043002B17D14FF46053C4F2AC
:1031A00002034FF46052C4F20202126F42F4007242
:1031B0001A674FF46053C4F202034FF46052C4F232
:1031C0000202126F42F400421A674FF4E043C4F265
:1031D00000034FF4E042C4F20002526822F400728D
:1031E0005A607047AFF30080AFF30080AFF3008008
:1031F00008B54FF46053C4F202031B694FF46053E7
:10320000C4F202034FF0FF321A614FF46053C4F26C
:1032100002034FF000021A614FF46053C4F202033C
:103220005B694FF46053C4F202034FF0FF325A61FE
:103230004FF46053C4F202034FF000025A614FF49E
:103240006053C4F202034FF46052C4F20202126AE5
:1032500062F080521A624FF46053C4F202034FF0DE
:1032600000021A624FF46053C4F202035B6A4FF427
:103270006053C4F202034FF0FF325A624FF46053BE
:10328000C4F202034FF000025A624EF21003CEF273
:10329000000349F23F02C0F202025A604EF21003EC
:1032A000CEF200034FF000029A604EF21003CEF20D
:1032B00000034FF007021A604EF6F053CEF20003FF
:1032C0004EF6F052CEF20002D26842F08072DA601E
:1032D0004FF48053CEF200034FF48052CEF200023E
:1032E000126842F001021A604FF46053C4F2020304
:1032F0004FF46052C4F20202126C42F080521A641F
:10330000FFF71EFFFFF724FE08BD00BFAFF30080EC
:103310004FF46053C4F202034FF080521A644FF42A
:10332000E043C4F200034FF480421A6000BF4FF440
:10333000E043C4F200035B6803F48043002BF6D043
:103340004FF46053C4F202034FF46052C4F202021D
:10335000126842F001021A6000BF4FF46053C4F2D9
:1033600002031B6803F00203002BF6D04FF46053F6
:10337000C4F202034FF46052C4F20202126842F433
:1033800080321A6000BF4FF46053C4F202031B681E
:1033900003F40033002BF6D04FF46053C4F2020361
:1033A0004FF46052C4F20202526F42F001025A67B7
:1033B00000BF4FF46053C4F202035B6F03F00203DB
:1033C000002BF6D04FF46053C4F2020345F20842DA
:1033D000C0F240725A604FF46053C4F202034FF4DB
:1033E0006052C4F20202126842F080721A6000BF9A
:1033F0004FF46053C4F202031B6803F00073002B08
:10340000F6D04FF46052C4F202024FF46053C4F29B
:10341000020399684FF41443C3F608030B43936007
:103420004FF47053C4F2020340F205721A604FF475
:103430006053C4F202034FF46052C4F20202926875
:1034400042F002029A6000BF4FF46053C4F20203DC
:103450009B6803F00C03082BF6D14FF46053C4F2C1
:1034600002034FF46052C4F20202526C42F48042F2
:103470005A644FF46053C4F202034FF46052C4F232
:103480000202526E42F480425A667047AFF30080E7
:1034900082B001900091009B5A68019B5A60009B8A
:1034A0009A68019B9A60009BDA68019BDA60009B36
:1034B0001A69019B5A61009B5A69019B1A62009B21
:1034C0009A69019B5A62009B1A68019B1A6002B0BC
:1034D000704700BFAFF30080AFF30080AFF3008010
:1034E00000B583B001904FF46053C4F202034FF46F
:1034F0006052C4F20202126B6FEA52226FEA422259
:103500001A634FF46053C4F202034FF46052C4F2E2
:103510000202126D6FEA52226FEA42221A65019B83
:103520004FF00000C4F202001946FFF7B1FF019B03
:1035300003F11C034FF48060C4F202001946FFF748
:10354000A7FF019B03F138034FF40060C4F20200AF
:103550001946FFF79DFF019B03F154034FF44060B0
:10356000C4F202001946FFF793FF019B03F17003B9
:103570004FF48050C4F202001946FFF789FF019B07
:1035800003F18C034FF4A050C4F202001946FFF778
:103590007FFF019B03F1A8034FF4C050C4F2020067
:1035A0001946FFF775FF019B03F1C4034FF4E05088
:1035B000C4F202001946FFF76BFF019B03F1E00321
:1035C0004FF40050C4F202001946FFF761FF03B048
:1035D00000BD00BFAFF30080AFF30080AFF3008009
:1035E0008EB0039002910192019B03F003030D93AF
:1035F000019B03F004034FEA93030C93019B03F038
:1036000018034FEAD3030B93019B03F060034FEAC7
:1036100053130A93019B03F4F0634FEAD313089307
:103620004FF000030993029B03F00103002B60D0CD
:10363000099B03F007034FEA8303089A02FA03F396
:103640000793099B03F007034FEA83034FF00F0230
:1036500002FA03F30693099B072B0AD8039B1A6A05
:10366000069B6FEA03031A40079B1A43039B1A62E7
:1036700009E0039B5A6A069B6FEA03031A40079B03
:103680001A43039B5A62099B4FF0010202FA03F3AB
:103690000593039B5A68059B6FEA03031A400C9B32
:1036A0001A43039B5A60099B4FEA43034FF00302FE
:1036B00002FA03F30493039B9A68049B6FEA0303E3
:1036C0001A400B9B1A43039B9A60039BDA68049B86
:1036D0006FEA03031A400A9B1A43039BDA60039BB9
:1036E0001A68049B6FEA03031A400D9B1A43039B5D
:1036F0001A60029B4FEA53030293029B002B14D0E3
:103700000C9B4FEA43030C930B9B4FEA83030B93F1
:103710000A9B4FEA83030A930D9B4FEA83030D93A1
:10372000099B03F1010309937DE700BF0EB07047C9
:1037300082B040F6A463C2F200034FF42052C4F2F8
:1037400000021A604FF07F03019340F6A463C2F2B7
:1037500000031B684FF0CA025A6240F6A463C2F22B
:1037600000031B684FF053025A624FF42053C4F217
:103770000003DB6803F01003002B45D140F6A4637F
:10378000C2F200031A6840F6A463C2F200031B6889
:10379000DB6843F08003D36040F6A463C2F2000309
:1037A0001B68DB6803F04003002BF5D0019B4FEA58
:1037B0000342019B03F101034FF4FA41B1FBF3F320
:1037C00003F1FF334FEA43434FEA5343134301935B
:1037D00040F6A463C2F200031B68019A1A6140F626
:1037E000A463C2F200031B68019A1A6140F6A46345
:1037F000C2F200031A6840F6A463C2F200031B6819
:10380000DB6823F08003D36002B07047AFF3008021
:1038100000B585B001900091009B03F00C03002BD4
:1038200001D0FDF7ADF9019B5B6A1B68019A526AF2
:103830001268126822F01F021A60019B5B6A1B6803
:103840001B6803F00103002BF7D1019B5B6A5B68E7
:10385000019A526A127A4FF03D0101FA02F21A609F
:10386000019B1B6A1B68019A126A1268126822F097
:103870001F021A60019B1B6A1B681B6803F001038F
:10388000002BF7D1019B1B6A5B68019A126A127ABE
:103890004FF03D0101FA02F21A60019B5B681B6860
:1038A000002B11D0019B4FF004021A70019B5B6842
:1038B0001B6801989847019B1B78042B08D1019B3A
:1038C0004FF002021A7003E0019B4FF002021A70DF
:1038D0004FF0200383F31188FDF722FC019B9B68C6
:1038E000002B0DD0019B9B680393019B4FF00002BE
:1038F0009A60039B4FF000029A620398FDF768FEFE
:10390000FDF72EFC4FF0000383F3118805B000BDD6
:1039100000B583B001900091009B03F00C03002BD5
:1039200001D0FDF72DF903B000BD00BFAFF300805B
:1039300008B540F6D863C2F200034FF6FF721A8052
:1039400040F6A860C2F20000FEF72AFF40F6A86326
:10395000C2F200034FF44052C4F20102DA6140F6B1
:10396000A863C2F200030D4A1A6240F6A863C2F2CD
:1039700000030B4A5A6240F6A863C2F200034FF0FC
:103980001602C0F201629A6240F6A863C2F2000316
:103990004FF04602C0F20162DA6208BD80550008AD
:1039A000A4550008AFF30080AFF30080AFF30080B0
:1039B00000B585B00190019B1B78012B54D1019A71
:1039C00040F6A863C2F200039A423DD1019B1B6AF4
:1039D00018464FF00A0143F61102C0F60002019B9F
:1039E000FFF706FB03468DF80F309DF80F30002BD4
:1039F00005D045F26040C0F60000FDF7C1FC019B18
:103A00005B6A18464FF00A0143F61112C0F6000235
:103A1000019BFFF7EDFA03468DF80F309DF80F304C
:103A2000002B05D045F27440C0F60000FDF7A8FC5D
:103A30004FF46053C4F202034FF46052C4F2020226
:103A4000526C42F480525A64019B1B6A1B68019AB3
:103A5000D26902F10C029A60019B5B6A1B68019AB1
:103A6000D26902F10C029A60019B5B685B8903F4E6
:103A70000063002B0CD1019B9B6A23F4F042019B55
:103A80009A62019BDB6A23F4F042019BDA620FE049
:103A9000019B9B6A23F4F04343F42052019B9A62FA
:103AA000019BDB6A23F4F04343F42052019BDA626A
:103AB000019BDB694FF000021A80019BDB69019AD0
:103AC0005268528942F4417292B21A80019BDB69BA
:103AD0004FF007029A80019BDB69019AD269128834
:103AE00092B242F0400292B21A8005B000BD00BF0F
:103AF00082B00190019B5B685B68019A52681289F1
:103B00004FF0010101FA02F292B25A8302B07047FB
:103B100082B00190019B5B685B68019A52681289D0
:103B20004FF0010101FA02F292B21A8302B070471B
:103B300084B0039002910192039B1B6A1A6840F6BD
:103B4000DA63C2F20003D360039B1B6A1B68029A0C
:103B50005A60039B1B6A1B68039A926A1A60039B54
:103B60005B6A1B68019ADA60039B5B6A1B68029AB6
:103B70005A60039B5B6A1B68039AD26A42F48062B4
:103B80001A60039B1B6A1B68039A126A1268126808
:103B900042F001021A60039B5B6A1B68039A526A37
:103BA0001268126842F001021A6004B0704700BF48
:103BB00082B001900B46ADF80230019BDB69BDF885
:103BC00002209A8100BF019BDB691B899BB203F035
:103BD0000103002BF7D0019BDB699B899BB2184640
:103BE00002B07047AFF30080AFF30080AFF3008006
:103BF00084B001900091019BD3F8D4300393019BD2
:103C0000D3F8D4204FF48053C4F201039A4208D071
:103C1000019BD3F8D4204FF4A053C4F201039A427D
:103C20000BD1009B1A684FF43D43C0F20153B3FB24
:103C3000F2F39AB2039B1A810AE0009B1A684DF6D0
:103C40008063C0F28023B3FBF2F39AB2039B1A8124
:103C5000009BDB8843F040039AB2039B1A82009BCF
:103C60001B8943F001039AB2039B9A82009B9B88B5
:103C700043F4045343F02C039AB2039B9A81039BB1
:103C80004FF000021A80039B1B88039B9B8804B0A3
:103C9000704700BFAFF30080AFF30080AFF3008048
:103CA00000B585B001900B46ADF802304FF000032F
:103CB0000393BDF8023003F00803002B03D0039BED
:103CC00043F080030393BDF8023003F00103002B9F
:103CD00003D0039B43F020030393BDF8023003F0AD
:103CE0000203002B03D0039B43F040030393BDF872
:103CF000023003F00403002B03D0039B43F48073D2
:103D000003934FF0200383F31188FDF709FA019B19
:103D100003F1040318460399FDF7FAFFFDF720FAB3
:103D20004FF0000383F3118805B000BDAFF30080AE
:103D300000B587B00190019BD3F8D4300593059B63
:103D40009B89ADF81230059B1B88ADF81030059BA0
:103D50009B88ADF80E30BDF8103003F00F03002B38
:103D600005D0BDF8103001981946FFF799FFBDF84E
:103D7000103003F48073002B1BD04FF0200383F32B
:103D80001188FDF7CDF9019B03F1040318464FF4A8
:103D90000071FDF7BDFFFDF7E3F94FF0000383F37A
:103DA0001188059B1B889BB223F480739AB2059BF4
:103DB0001A80BDF8103003F02003002B12D04FF012
:103DC000200383F31188FDF7ABF9BDF80E30DBB2A9
:103DD00001981946FEF7A4FCFDF7C2F94FF0000365
:103DE00083F31188BDF8123003F08003002B33D029
:103DF000BDF8103003F08003002B2DD04FF02003CE
:103E000083F31188FDF78CF9019B03F13003184609
:103E1000FEF7EEF90290029B002B13DA019B03F1EF
:103E2000040318464FF00801FDF772FFBDF8123089
:103E300023F0C0039BB243F040039BB29AB2059BB0
:103E40009A8103E0029B9AB2059B9A80FDF788F95C
:103E50004FF0000383F31188BDF8103003F04003E6
:103E6000002B22D04FF0200383F31188FDF758F97F
:103E7000019B03F1040318464FF01001FDF748FFC2
:103E8000FDF76EF94FF0000383F31188BDF812308F
:103E900023F040039AB2059B9A81059B1B889BB235
:103EA00023F040039AB2059B1A8007B000BD00BF03
:103EB00082B001904FF48843C4F200034FF488426B
:103EC000C4F20002928992B242F0800292B29A81C8
:103ED00002B07047AFF30080AFF30080AFF3008013
:103EE00082B001904FF49043C4F200034FF490422B
:103EF000C4F20002928992B242F0800292B29A8198
:103F000002B07047AFF30080AFF30080AFF30080E2
:103F100008B5FDF745F940F6DC60C2F20000FFF796
:103F200007FFFDF76DF9FCF79BFE08BDAFF30080BE
:103F300008B5FDF735F940F6B470C2F20000FFF79E
:103F4000F7FEFDF75DF9FCF78BFE08BDAFF30080CF
:103F500008B540F6DC60C2F200004FF0000143F605
:103F6000B162C0F60002FEF76BFB40F6DC63C2F202
:103F700000034FF48842C4F20002C3F8D42040F694
:103F8000B470C2F200004FF0000143F6E162C0F6E7
:103F90000002FEF755FB40F6B473C2F200034FF483
:103FA0009042C4F20002C3F8D42008BDAFF30080F1
:103FB00000B583B001900091009B002B04D145F225
:103FC000E053C0F600030093019B1B7A012B31D113
:103FD000019A40F6DC63C2F200039A4211D14FF419
:103FE0006053C4F202034FF46052C4F20202126C36
:103FF00042F400321A644FF026004FF0C001FCF783
:10400000CFFE019A40F6B473C2F200039A4211D176
:104010004FF46053C4F202034FF46052C4F2020240
:10402000126C42F480221A644FF027004FF0C00156
:10403000FCF7B6FE01980099FFF7DAFD03B000BD6A
:1040400008B5FFF765F908BDAFF30080AFF3008056
:10405000704700BFAFF30080AFF30080AFF3008084
:1040600088B00390029101920093029B0593009BFC
:10407000002B02D1029B049301E0009B0493039B5D
:1040800003F10B030693059B019AB3FBF2F201992E
:1040900001FB02F29B1A0793079B03F1300307937E
:1040A000079B392B03DD079B03F107030793069B4F
:1040B00003F1FF330693079BDAB2069B1A70059A49
:1040C000019BB2FBF3F30593049A019BB2FBF3F35C
:1040D0000493049B002BD6D1039B03F10B031A46D8
:1040E000069BD31A0793069B1A78039B1A70039BAF
:1040F00003F101030393069B03F101030693079B5E
:1041000003F1FF330793079B002BECD1039B184669
:1041100008B07047AFF30080AFF30080AFF30080CA
:1041200000B585B003900291019203980299019A1B
:104130004FF00003FFF794FF0346184605B000BD9B
:1041400030B587B00390CDE9002348F2A063C0F2F8
:1041500001030593DDE90001FCF7EAFB0346049344
:10416000039804994FF00A024FF00003FFF778FF1D
:104170000390039B4FF02E021A70039B03F101037F
:1041800003930498FCF756F902460B46DDE900015B
:10419000FCF702F802460B4614461D460598FCF74C
:1041A00039F902460B4620462946FCF7A9F9024692
:1041B0000B4610461946FCF7BBFB03460493059AD1
:1041C0004CF6CD43CCF6CC43A3FB02134FEAD3030A
:1041D000039804994FF00A02FFF742FF034618467E
:1041E00007B030BDAFF30080AFF30080AFF30080C5
:1041F0000EB400B592B0019014AB0893139B1B78DA
:104200008DF83F30139B03F1010313939DF83F306A
:10421000002B00F071829DF83F30252B09D0019BC7
:104220001B689B689DF83F2001981146984700BF86
:10423000E4E702AB119302AB10934FF000038DF84B
:104240002E30139B1B782D2B07D1139B03F10103F9
:1042500013934FF001038DF82E304FF020038DF8AB
:104260003E30139B1B782E2B03D0139B1B78302BD7
:1042700007D1139B03F1010313934FF030038DF823
:104280003E304FF000030C93139B1B788DF83F30AA
:10429000139B03F1010313939DF83F302F2B0AD991
:1042A0009DF83F30392B06D89DF83F30A3F13003FD
:1042B0008DF83F300AE09DF83F302A2B13D1089B40
:1042C00003F1040208921B688DF83F300C9A1346E4
:1042D0004FEA83039B184FEA43031A469DF83F3089
:1042E000D3180C93D0E700BF4FF000030D939DF857
:1042F0003F302E2B30D1139B1B788DF83F30139B12
:1043000003F1010313939DF83F302F2B0AD99DF839
:104310003F30392B06D89DF83F30A3F130038DF89C
:104320003F300AE09DF83F302A2B14D1089B03F15F
:10433000040208921B688DF83F300D9A13464FEA2D
:1043400083039B184FEA43030D939DF83F300D9A6A
:10435000D3180D93CFE700BF9DF83F306C2B03D0EF
:104360009DF83F304C2B10D14FF001038DF82F30CA
:10437000139B1B78002B1DD0139B1B788DF83F30AF
:10438000139B03F10103139314E09DF83F30402B7E
:1043900006D99DF83F305A2B02D84FF0010301E0B7
:1043A0004FF000038DF82F309DF82F3003F00103FC
:1043B0008DF82F309DF83F30A3F14403342B00F2E9
:1043C000298101A252F823F017450008154600087C
:1043D0001546000815460008154600081745000850
:1043E0001546000815460008154600081546000841
:1043F00015460008D945000815460008154600086E
:10440000154600081546000815460008CF45000867
:104410001546000815460008C54500081546000861
:104420001546000815460008154600081546000800
:1044300015460008154600081546000815460008F0
:10444000154600089D440008174500081546000859
:10445000674500081546000815460008174500087E
:1044600015460008154600081546000815460008C0
:1044700015460008D94500081546000815460008ED
:1044800015460008BF44000815460008CF4500083F
:104490001546000815460008C54500084FF02003E2
:1044A0008DF83E30089B03F1040208921B68DAB2D3
:1044B000119B1A70119B03F101031193B4E04FF0AB
:1044C00020038DF83E30089B03F1040208921B681C
:1044D0001093109B002B04D145F29043C0F60003CB
:1044E00010930D9B002B02D147F6FF730D93109B89
:1044F000119303E0119B03F101031193119B1B78AE
:10450000002B00F090800D9B03F1FF330D930D9B6A
:10451000002BEFDA87E09DF82F30002B06D0089BA8
:1045200003F1040208921B680A9305E0089B03F15B
:10453000040208921B680A930A9B002B0BDA119B5A
:104540004FF02D021A70119B03F1010311930A9B86
:10455000C3F100030A9311980A994FF00A02FFF77A
:10456000DFFD119060E0089B03F1070323F00703D0
:1045700003F108020892D3E9002310461946FCF71C
:10458000FFF903460993DDED097AF5EEC07AF1EE05
:1045900010FA0DD5119B4FF02D021A70119B03F1EB
:1045A00001031193DDED097AF1EE677ACDED097A19
:1045B0000998FBF751FF02460B461198FFF7C0FD23
:1045C000119031E04FF010038DF83F3008E04FF0CC
:1045D0000A038DF83F3003E04FF008038DF83F30B9
:1045E0009DF82F30002B06D0089B03F1040208929F
:1045F0001B680A9305E0089B03F1040208921B68FC
:104600000A939DF83F3011980A991A46FFF788FDE2
:10461000119009E0119B9DF83F201A70119B03F146
:104620000103119300E000BF119A109BD31A0E935F
:104630000C9A0E9BD31A0C930C9B002B02DA4FF0B2
:1046400000030C939DF82E3083F00103DBB2002BA6
:1046500003D00C9BC3F100030C930C9B002B33DAAB
:10466000109B1B782D2B13D19DF83E30302B0FD192
:10467000019B1B689B68109A1278109901F1010147
:1046800010910198114698470E9B03F1FF330E934A
:10469000019B1B689B689DF83E2001981146984736
:1046A0000C9B03F101030C930C9B002BF0D10BE04E
:1046B000019B1B689B68109A1278109901F1010107
:1046C00010910198114698470E9B03F1FF330E930A
:1046D0000E9B002BECDA0BE0019B1B689B689DF89E
:1046E0003E200198114698470C9B03F1FF330C9331
:1046F0000C9B002BF0D181E512B05DF804EB03B008
:10470000704700BFAFF30080AFF30080AFF30080CD
:1047100000B583B0019040F6D853C2F200039A6905
:1047200045F2A043C0F6000393610FE04FF44063ED
:10473000C4F202034FF44062C4F20202526982F4EE
:1047400000525A614FF0FA00FDF752FA40F6D85382
:10475000C2F200039B6993F8213003F00403002B9D
:10476000E4D04FF00003184603B000BDAFF3008063
:1047700000B585B0FDF78CFEFCF7AAFB4FF03200C8
:10478000FDF736FA40F6DC60C2F2000040F60001A8
:10479000C2F20001FDF78CFF40F6DC60C2F20000BF
:1047A00045F2A841C0F6000145F2B042C0F6000251
:1047B000FFF71EFD4FF03200FDF71AFA4FF40063C9
:1047C000C4F202034FF010021A834FF0000300936B
:1047D00041F29000C2F200004FF4DC714FF0400251
:1047E00044F21173C0F60003FDF7C2F94FF0000068
:1047F000C4F202004FF0200140F29A22FEF7F0FED0
:104800004FF00000C4F202004FF0400140F29A2243
:10481000FEF7E6FE4FF00000C4F202004FF0800108
:1048200040F29A22FEF7DCFE4FF00000C4F20200D4
:104830004FF002014FF00102FEF7D2FE41F24C2090
:10484000C2F200004FF0000140F6A862C2F200027E
:1048500000F076F841F24C20C2F2000000F070F94E
:104860004FF4FA60FDF7C4F940F6DC60C2F20000D4
:1048700045F2D441C0F600014FF48062FFF7B8FC66
:1048800041F24C20C2F2000000F08AF94FF0000320
:1048900003930EE041F24C23C2F20003039A9B18EB
:1048A00003F108034FF0FF021A70039B03F10103A9
:1048B0000393039A40F2FF339A42EBDD41F24C201E
:1048C000C2F2000000F03CF94FF4FA70FDF790F9E5
:1048D0004FF44063C4F202034FF44062C4F2020298
:1048E000526982F480525A6141F24823C2F20003B5
:1048F0001B6803F1010241F24823C2F200031A606F
:10490000BEE700BFAFF30080AFF30080AFF30080DD
:1049100000B583B001900198FFF7FAF803B000BD2D
:1049200000B583B001900B468DF803309DF803303D
:104930000198194600F044F903B000BDAFF30080C0
:1049400000B585B0039002910192029B002B03D029
:10495000039B029A1A6005E0039A45F60033C0F6FD
:1049600000031360039B019A5A60039B1B685B68FA
:10497000039A126812894FF0010101FA02F292B211
:104980001A83039B1B685B69039A1268128B4FF0B2
:10499000010101FA02F292B21A834FF03200FDF7E0
:1049A00027F9039B1B685B69039A1268128B4FF00F
:1049B000010101FA02F292B25A834FF03200FDF780
:1049C00017F9039B1B685B69039A1268128B4FF0FF
:1049D000010101FA02F292B21A834FF03200FDF7A0
:1049E00007F9039B5A68039B1B6810461946FDF79D
:1049F000EFFE039B5B681846FDF722FF03984FF01C
:104A0000AE01FFF78DFF03984FF0D501FFF788FF48
:104A100003984FF08001FFF783FF03984FF0A80140
:104A2000FFF77EFF03984FF03F01FFF779FF0398F0
:104A30004FF0D301FFF774FF03984FF00001FFF729
:104A40006FFF03984FF04001FFF76AFF03984FF0A4
:104A50008D01FFF765FF03984FF01001FFF760FF2E
:104A600003984FF0A001FFF75BFF03984FF0200180
:104A7000FFF756FF03984FF00001FFF751FF03982F
:104A80004FF0C801FFF74CFF03984FF0DA01FFF732
:104A900047FF03984FF01201FFF742FF03984FF0D2
:104AA0008101FFF73DFF03984FF09F01FFF738FFAB
:104AB00003984FF0D901FFF733FF03984FF022011D
:104AC000FFF72EFF03984FF0DB01FFF729FF039854
:104AD0004FF04001FFF724FF03984FF0A401FFF7C8
:104AE0001FFF03984FF0A601FFF71AFF03984FF03E
:104AF000AF01FFF715FF039B5B681846FDF7C8FE83
:104B0000039800F04DF8039B03F1080245F2F063AF
:104B1000C0F600031B68104645F20071C0F60001A4
:104B20001A4600F06DF8039800F00AF84FF00A00FA
:104B3000FDF75EF805B000BDAFF30080AFF3008075
:104B400000B583B00190019B5B681846FDF778FEC5
:104B5000019B1B68DB68019A1268128A4FF0010101
:104B600001FA02F292B25A83019B1B68DB68019A38
:104B70001268128A4FF0010101FA02F292B21A830E
:104B8000019B5A68019B03F1080310464FF48061B2
:104B90001A46FDF7A5FE03B000BD00BFAFF30080CD
:104BA00000B583B00190019B03F1080318464FF054
:104BB00000014FF4806200F0CBF803B000BD00BFED
:104BC00000B583B001900B468DF80330019B1B6844
:104BD000DB68019A1268128A4FF0010101FA02F2B1
:104BE00092B25A83019B5A689DF803309BB21046DB
:104BF0001946FEF7DDFF03B000BD00BFAFF3008034
:104C00000F2A2DE9F00340F2958041EA00039B074B
:104C100040F092800C6804604D6845608E68A2F197
:104C200010038660CC681D460F2DC460C3F30016C8
:104C300001F1100400F1100322D966B126681E604C
:104C400066685E60A6689E60E668103DDE601034AF
:104C500010330F2D14D926681E6066685E60A66842
:104C60009E60E668DE6026691E6166695E61A6690F
:104C70009E61E669203DDE61203420330F2DEAD8A5
:104C8000A2F1100323F00F0402F00F031034032BE2
:104C900000EB0408214451D9A3F104090B464FEA63
:104CA000990901EB890C53F8046BC1EB0C054446E0
:104CB0000CF1040C634544F8046BC5F3800512D075
:104CC0002DB153F8045B634544F8045B0BD01E46DA
:104CD000254656F8047B45F8047B5F68331D676002
:104CE0002C1D6345F3D109F101039C00091902F061
:104CF00003024444DAB123460D7803F8015BA2189D
:104D0000E4431419934204F0010410D02CB111F8BB
:104D1000014F03F8014B934209D04D781C4604F82B
:104D2000015B8D785D70631C02319342F5D1BDE863
:104D3000F00370470446DDE70446DCE744461A46C4
:104D4000D8E700BF000000000000000000000000E5
:104D5000F0B48407034600F08E80541E002A00F051
:104D60008880E507CEB211D41A46671E02F8016B9F
:104D70001346154692070FD0002C7AD003F8016B2A
:104D80009A073C461D4607D0013CEDE7034603F871
:104D9000016B9A071D46F7D1032C52D9CEB246EAD1
:104DA00006270F2C47EA07432DD9A4F11002174616
:104DB0000F2FC2F300162B606B60AB60EB6005F148
:104DC000100216D93EB1103F136053609360D36058
:104DD00010320F2F0DD9203F02F1100613605360DF
:104DE0009360D360136153619361D36120320F2FBD
:104DF000F1D8A4F1100222F00F0204F00F041032D7
:104E0000032C15441DD9271F3E462A46032E42F87F
:104E1000043BC7F380070DD927B1043E032E42F8A7
:104E2000043B07D91746083E47F8043B53603A1D38
:104E3000032EF7D8231F23F00302131D04F00304ED
:104E4000ED18B4B12B46C9B203F8011B2C19ED4380
:104E50006219A34202F001050BD01DB103F8011B3A
:104E6000A34206D01A4602F8011B5970531CA342F4
:104E7000F8D1F0BC7047054614468DE700000000ED
:104E800069646C6500000000000000000000000084
:104E90005356233100000000535623320000000017
:104EA0005356233300000000535623340000000003
:104EB00053562335000000005356233600000000EF
:104EC00053562337000000005356233800000000DB
:104ED00053562339000000005356233130000000A0
:104EE0005356233131000000000000000000000094
:104EF0002263685654536574492228290000000033
:104F0000226368565452657365744922282900004B
:104F10006368565452657365744928292C202331DF
:104F20000000000000000000000000000000000081
:104F3000636853636852656164794928292C20238A
:104F400031000000737461636B206F766572666C6C
:104F50006F7700000000000000000000000000006B
:104F60002263685468644372656174654922282924
:104F700000000000226368546864536574507269CD
:104F80006F726974792228290000000063685468F0
:104F900064526573756D6528292C2023310000004B
:104FA000226368546864536C656570222829000088
:104FB0006368546864457869745328292C20233128
:104FC00000000000226368546864576169742228F5
:104FD0002900000063685468645761697428292CAB
:104FE0002023310063685468645761697428292C50
:104FF000202332000000000000000000000000003C
:105000002263684D7478496E697422282900000073
:105010002263684D74784C6F636B5322282900001B
:1050200063684D74784C6F636B5328292C202331AF
:105030000000000063684D74784C6F636B5328293F
:105040002C202332000000002263684D74785472D3
:10505000794C6F636B5322282900000063684D74FC
:1050600078556E6C6F636B28292C2023310000006B
:1050700063684D7478556E6C6F636B28292C202300
:105080003200000063684D7478556E6C6F636B532B
:1050900028292C202331000063684D7478556E6CEC
:1050A0006F636B5328292C2023320000000000007E
:1050B00022636845767452656769737465724D61E1
:1050C000736B222829000000226368457674556EB0
:1050D00072656769737465722228290022636845C6
:1050E000767442726F6164636173744D61736B496E
:1050F000222829002263684576745369676E616CC3
:10510000222829002263684576745369676E616CB2
:10511000492228290000000022636845767444690A
:105120007370617463682228290000006368457603
:1051300074446973706174636828292C20233100DA
:1051400022636849515265616454696D656F757475
:10515000222829002263684F515772697465546987
:105160006D656F75742228290000000000000000A2
:105170002273645374617274222829007364537417
:1051800061727428292C202331000000227364539B
:10519000746F702228290000736453746F7028297B
:1051A0002C20233100000000227364496E636F6D70
:1051B000696E674461746149222829002273645230
:1051C0006571756573744461746149222829000012
:1051D00022737069537461727422282900000000E0
:1051E000737069537461727428292C202331000074
:1051F0002273706953746F70222829007370695389
:10520000746F7028292C20233100000022737069EC
:1052100053656C656374222829000000737069531C
:10522000656C65637428292C202331002273706912
:10523000556E73656C656374222829007370695517
:105240006E73656C65637428292C2023310000007F
:1052500022737069537461727449676E6F7265224C
:1052600028290000737069537461727449676E6F06
:10527000726528292C2023310000000022737069F8
:10528000537461727445786368616E67652228297A
:10529000000000007370695374617274457863682C
:1052A000616E676528292C20233100002273706904
:1052B000537461727453656E6422282900000000E3
:1052C000737069537461727453656E6428292C205D
:1052D00023310000227370695374617274526563E4
:1052E0006569766522282900737069537461727448
:1052F0005265636569766528292C202331000000FA
:105300002273706949676E6F7265576169742228EC
:105310002900000073706949676E6F726528292C37
:105320002023310073706949676E6F726528292CDC
:10533000202332005F7370695F7761697428292CBC
:10534000202331002273706945786368616E676558
:105350002228290073706945786368616E67652843
:10536000292C20233100000073706945786368613F
:105370006E676528292C2023320000002273706993
:1053800053656E642228290073706953656E642822
:10539000292C20233100000073706953656E642846
:1053A000292C202332000000227370695265636546
:1053B0006976652228290000737069526563656902
:1053C000766528292C202331000000007370695273
:1053D00065636569766528292C202332000000006A
:1053E0002273706941637175697265427573222811
:1053F000290000002273706952656C656173654213
:105400007573222829000000000000000000000041
:1054100022646D6153747265616D416C6C6F636180
:10542000746522282900000022646D61537472653E
:10543000616D52656C65617365222829000000006A
:10544000646D6153747265616D52656C65617365FD
:1054500028292C202331000000000000000000005B
:105460007370695F6C6C645F737461727428292C4B
:10547000202331007370695F6C6C645F73746172B8
:105480007428292C202332000000000000000000B6
:10549000286E756C6C290000000000000000000000
:1054A000426C696E6B65720025730A0D0A0D00006F
:1054B0006E616E69426F782E636F6D202F2F2066AC
:1054C000345F7465737430315F6F6C65645F763020
:1054D0003100000053697A653A2025640A0D000006
:1054E0006D61696E0016C01104044C080C1014188C
:1054F0001C202122232400000000000000000000E6
:10550000D124000801250008312500086125000884
:1055100081250008B1250008D125000801260008D2
:10552000106002400860024000000B00286002404A
:105530000860024006010C00406002400860024022
:1055400010020D00586002400860024016030E0071
:10555000706002400C60024000040F00886002404E
:105560000C60024006051000A06002400C60024082
:1055700010061100B86002400C60024016072F00B0
:1055800010640240086402400008380028640240A9
:105590000864024006093900406402400864024081
:1055A000100A3A005864024008640240160B3B009F
:1055B000706402400C640240000C3C0088640240AD
:1055C0000C640240060D4400A06402400C640240DA
:1055D000100E4500B86402400C640240160F4600ED
:1055E00000840300000000400000000000000000F4
:1055F000A4A8002800000000FCFC3CFC56555555B2
:10560000FEFF000000775055700000008300A015D9
:1056100000000000FFFFFFF315555555FFFF000088
:1056200000000004007700001301000000000000EB
:10563000FFFFFFFF65555555FBFF000000000060B0
:10564000000606000001005500000000FFFFFFFFFC
:1056500055505500FF0F0000000000000000000042
:105660004000000000000000FFFFFFFF00000000FE
:10567000FFFF00000000000000000000000000002C
:1056800000000000FFFFFFFF00000000FFFF000020
:10569000000000000000000000000000000000000A
:1056A000FFFFFFFF00000000FFFF00000000000000
:1056B000000000000000000000000000FFFFFFFFEE
:1056C00000000000FFFF00000000000000000000DC
:1056D0000000000000000000FFFFFFFF00000000CE
:1056E000FFFF0000000000000000000000000000BC
:1056F00000040000000000000000000000000000A6
:105700000000000000000000000000000000000099
:105710000000000000000000000000000000000089
:105720000000000000000000000000000000000079
:105730000000000000000000000000000000000069
:105740000000000000000000000000000000000059
:105750000000000000000000008080000000000049
:105760000000000000000000000000000000000039
:105770000000000000000000000000008080000029
:105780000000000000000000000000000000000019
:105790000080C0606030984CCC4C98306060C08015
:1057A000000000000000000000000000003C363651
:1057B00014003C3E063E00063E3800FC36001C3617
:1057C000363E181E3E301E303E1E0000001C3E2E8F
:1057D0003A180E3E303E1E083C373B1F00BEFE000E
:1057E0001E3E3E3E001C3E2E3A181C3E2E3E180029
:1057F0003E3000FE3E003E303E1E003C37313F0052
:105800000000000000008080C06030B8184C2617EF
:105810000B09040201000000FF00000101FEFEFF71
:10582000FFFF260CFEFEFEFEFEC080C0F0FCFCFE6C
:105830007E3F3F3EFEFEFEFEFEFE0000B8FEFEFE88
:10584000FEFE0000FEFEFEFEFE000000FEFEFEFE6E
:10585000FE000000FEFEFEFEFEFE003EBEFEFEFE60
:10586000FCF800C0F0FCFCFE7E3F3F3EFEFEFCFC70
:10587000F0C000007EFEFEFEFEC0C0FEFEFEFE7E0C
:10588000F0F818CC26130B050402010000000000FC
:105890000000000000000000FF000000000F1F3F9C
:1058A0007F7F7C7C7F3F3F1F070409031F3F7F7F73
:1058B000FF7E7CFEFFBF3F1F0F010000000F1F3F58
:1058C0007F7F7C7E7F3F3F1F070000007F7F7F7FC1
:1058D0007F000000FFFFFFFFFFFF809FFFFFFFFF34
:1058E000F30100030F1F3F3F7F7C7C7C7F3F3F1F06
:1058F0000F0100007E7F7F7F7F03037F7F7F7F7E9E
:10590000FFFF00FF0000000000000000000000009A
:1059100000000000000080807F8080000000000008
:105920000000000000000000000000000000000077
:1059300000010202FC01FFB60000000000000000B0
:105940000000000000000000000000000F1F1F1FEB
:105950000E0000000F0F0F0F0F0F0F0F0F0707079D
:105960000300000000000000000000000000000034
:105970000000000000000000000000000000000027
:10598000FFFF00FF804040002000101008080004C6
:1059900000020201010000000000000101000202FB
:1059A00004040008081010002020404000808000FF
:1059B00000000000FF00FF000000000000000000E9
:1059C00000000000000000000000000000000000D7
:1059D00000000000000000000000000000000000C7
:1059E00000000000000000000000000000000000B7
:1059F00000000000000000000000000000000000A7
:105A0000030302060607050D0D0C0E0A1A1A1814D8
:105A100034343038286860605050D0C0E0A0A08096
:105A200080A0A0A0E0C0D0507070606828383831E5
:105A300035141E1E1B180F0000000000000000009F
:105A40000000000000000000000000000000000056
:105A50000000000000000000000000000000000046
:105A60000000000000000000000000000000000036
:105A70000000000000000000000000000000000026
:105A80000000000000000000000000000000000016
:105A90000000000000000000000000000000010104
:105AA00001010000000000000000000000000000F4
:105AB00000000000000000000000000000000000E6
:105AC00000000000000000000000000000000000D6
:105AD00000000000000000000000000000000000C6
